{
  "contractName": "Adoption",
  "abi": [
    {
      "constant": true,
      "inputs": [
        {
          "name": "",
          "type": "uint256"
        }
      ],
      "name": "adopters",
      "outputs": [
        {
          "name": "",
          "type": "address"
        }
      ],
      "payable": false,
      "stateMutability": "view",
      "type": "function"
    },
    {
      "constant": false,
      "inputs": [
        {
          "name": "petId",
          "type": "uint256"
        }
      ],
      "name": "adopt",
      "outputs": [
        {
          "name": "",
          "type": "uint256"
        }
      ],
      "payable": true,
      "stateMutability": "payable",
      "type": "function"
    },
    {
      "constant": true,
      "inputs": [],
      "name": "getAdopters",
      "outputs": [
        {
          "name": "",
          "type": "address[16]"
        }
      ],
      "payable": false,
      "stateMutability": "view",
      "type": "function"
    }
  ],
  "bytecode": "0x608060405230601060006101000a81548173ffffffffffffffffffffffffffffffffffffffff021916908373ffffffffffffffffffffffffffffffffffffffff16021790555034801561005157600080fd5b506102bd806100616000396000f3fe6080604052600436106100345760003560e01c80633de4eb171461003957806343ae80d31461008c5780638588b2c514610107575b600080fd5b34801561004557600080fd5b5061004e610149565b6040518082601060200280838360005b8381101561007957808201518184015260208101905061005e565b5050505090500191505060405180910390f35b34801561009857600080fd5b506100c5600480360360208110156100af57600080fd5b81019080803590602001909291905050506101ca565b604051808273ffffffffffffffffffffffffffffffffffffffff1673ffffffffffffffffffffffffffffffffffffffff16815260200191505060405180910390f35b6101336004803603602081101561011d57600080fd5b81019080803590602001909291905050506101fd565b6040518082815260200191505060405180910390f35b61015161026e565b60006010806020026040519081016040528092919082601080156101c0576020028201915b8160009054906101000a900473ffffffffffffffffffffffffffffffffffffffff1673ffffffffffffffffffffffffffffffffffffffff1681526020019060010190808311610176575b5050505050905090565b600081601081106101d757fe5b016000915054906101000a900473ffffffffffffffffffffffffffffffffffffffff1681565b60008082101580156102105750600f8211155b61021957600080fd5b336000836010811061022757fe5b0160006101000a81548173ffffffffffffffffffffffffffffffffffffffff021916908373ffffffffffffffffffffffffffffffffffffffff160217905550819050919050565b60405180610200016040528060109060208202803883398082019150509050509056fea165627a7a72305820d1cf7dc883c1b9f872593a30b6872dc1c2e018fbf95ccfdbdf46e9aacaf20a200029",
  "source": "pragma solidity ^0.5.0;\n\ncontract Adoption {\n\n\taddress[16] public adopters;\n\taddress payable owner = address(uint160(address(this)));\n\n\t// Adopting a pet\n\tfunction adopt(uint petId) public payable returns (uint) {\n\t\trequire(petId >= 0 && petId <= 15);\n\n\t\tadopters[petId] = msg.sender;\n\t\treturn petId;\n\t}\n\n\t// Retrieving the adopters\n\tfunction getAdopters() public view returns (address[16] memory) {\n\t\treturn adopters;\n\t}\n\n}",
  "sourcePath": "/Users/kimny/Git/Pet-Shop-Project/contracts/Adoption.sol",
  "compiler": {
    "name": "solc",
    "version": "0.5.8+commit.23d335f2.Emscripten.clang"
  },
  "schemaVersion": "3.0.16",
  "updatedAt": "2019-11-20T21:06:01.277Z",
  "devdoc": {
    "methods": {}
  },
  "userdoc": {
    "methods": {}
  }
}